{
  "_format": "hh-sol-artifact-1",
  "contractName": "tokenSale",
  "sourceName": "contracts/tokenSale.sol",
  "abi": [
    {
      "inputs": [
        {
          "internalType": "address",
          "name": "_tokenAddress",
          "type": "address"
        },
        {
          "internalType": "uint256",
          "name": "_totalSupply",
          "type": "uint256"
        }
      ],
      "stateMutability": "nonpayable",
      "type": "constructor"
    },
    {
      "inputs": [
        {
          "internalType": "address",
          "name": "owner",
          "type": "address"
        }
      ],
      "name": "OwnableInvalidOwner",
      "type": "error"
    },
    {
      "inputs": [
        {
          "internalType": "address",
          "name": "account",
          "type": "address"
        }
      ],
      "name": "OwnableUnauthorizedAccount",
      "type": "error"
    },
    {
      "anonymous": false,
      "inputs": [
        {
          "indexed": true,
          "internalType": "address",
          "name": "previousOwner",
          "type": "address"
        },
        {
          "indexed": true,
          "internalType": "address",
          "name": "newOwner",
          "type": "address"
        }
      ],
      "name": "OwnershipTransferred",
      "type": "event"
    },
    {
      "anonymous": false,
      "inputs": [
        {
          "indexed": true,
          "internalType": "address",
          "name": "buyer",
          "type": "address"
        },
        {
          "indexed": false,
          "internalType": "uint256",
          "name": "amount",
          "type": "uint256"
        },
        {
          "indexed": false,
          "internalType": "uint256",
          "name": "price",
          "type": "uint256"
        }
      ],
      "name": "TokensPurchased",
      "type": "event"
    },
    {
      "inputs": [],
      "name": "SALE_DURATION",
      "outputs": [
        {
          "internalType": "uint256",
          "name": "",
          "type": "uint256"
        }
      ],
      "stateMutability": "view",
      "type": "function"
    },
    {
      "inputs": [
        {
          "internalType": "uint256",
          "name": "amountTokens",
          "type": "uint256"
        }
      ],
      "name": "buyTokens",
      "outputs": [],
      "stateMutability": "payable",
      "type": "function"
    },
    {
      "inputs": [
        {
          "internalType": "uint256",
          "name": "amountTokens",
          "type": "uint256"
        }
      ],
      "name": "getTokenPrice",
      "outputs": [
        {
          "internalType": "uint256",
          "name": "",
          "type": "uint256"
        }
      ],
      "stateMutability": "view",
      "type": "function"
    },
    {
      "inputs": [],
      "name": "owner",
      "outputs": [
        {
          "internalType": "address",
          "name": "",
          "type": "address"
        }
      ],
      "stateMutability": "view",
      "type": "function"
    },
    {
      "inputs": [],
      "name": "renounceOwnership",
      "outputs": [],
      "stateMutability": "nonpayable",
      "type": "function"
    },
    {
      "inputs": [],
      "name": "startTime",
      "outputs": [
        {
          "internalType": "uint256",
          "name": "",
          "type": "uint256"
        }
      ],
      "stateMutability": "view",
      "type": "function"
    },
    {
      "inputs": [],
      "name": "token",
      "outputs": [
        {
          "internalType": "contract Token",
          "name": "",
          "type": "address"
        }
      ],
      "stateMutability": "view",
      "type": "function"
    },
    {
      "inputs": [],
      "name": "tokensSold",
      "outputs": [
        {
          "internalType": "uint256",
          "name": "",
          "type": "uint256"
        }
      ],
      "stateMutability": "view",
      "type": "function"
    },
    {
      "inputs": [],
      "name": "totalSupply",
      "outputs": [
        {
          "internalType": "uint256",
          "name": "",
          "type": "uint256"
        }
      ],
      "stateMutability": "view",
      "type": "function"
    },
    {
      "inputs": [
        {
          "internalType": "address",
          "name": "newOwner",
          "type": "address"
        }
      ],
      "name": "transferOwnership",
      "outputs": [],
      "stateMutability": "nonpayable",
      "type": "function"
    }
  ],
  "bytecode": "0x608060405262278d0060025534801561001757600080fd5b50604051610ee9380380610ee98339818101604052810190610039919061026f565b33600073ffffffffffffffffffffffffffffffffffffffff168173ffffffffffffffffffffffffffffffffffffffff16036100ac5760006040517f1e4fbdf70000000000000000000000000000000000000000000000000000000081526004016100a391906102be565b60405180910390fd5b6100bb8161011260201b60201c565b5081600160006101000a81548173ffffffffffffffffffffffffffffffffffffffff021916908373ffffffffffffffffffffffffffffffffffffffff160217905550806005819055504260038190555050506102d9565b60008060009054906101000a900473ffffffffffffffffffffffffffffffffffffffff169050816000806101000a81548173ffffffffffffffffffffffffffffffffffffffff021916908373ffffffffffffffffffffffffffffffffffffffff1602179055508173ffffffffffffffffffffffffffffffffffffffff168173ffffffffffffffffffffffffffffffffffffffff167f8be0079c531659141344cd1fd0a4f28419497f9722a3daafe3b4186f6b6457e060405160405180910390a35050565b600080fd5b600073ffffffffffffffffffffffffffffffffffffffff82169050919050565b6000610206826101db565b9050919050565b610216816101fb565b811461022157600080fd5b50565b6000815190506102338161020d565b92915050565b6000819050919050565b61024c81610239565b811461025757600080fd5b50565b60008151905061026981610243565b92915050565b60008060408385031215610286576102856101d6565b5b600061029485828601610224565b92505060206102a58582860161025a565b9150509250929050565b6102b8816101fb565b82525050565b60006020820190506102d360008301846102af565b92915050565b610c01806102e86000396000f3fe6080604052600436106100915760003560e01c806378e979251161005957806378e979251461014a5780638da5cb5b14610175578063c457fb37146101a0578063f2fde38b146101dd578063fc0c546a1461020657610091565b806318160ddd146100965780633610724e146100c1578063518ab2a8146100dd5780636d79207c14610108578063715018a614610133575b600080fd5b3480156100a257600080fd5b506100ab610231565b6040516100b89190610712565b60405180910390f35b6100db60048036038101906100d6919061075e565b610237565b005b3480156100e957600080fd5b506100f2610445565b6040516100ff9190610712565b60405180910390f35b34801561011457600080fd5b5061011d61044b565b60405161012a9190610712565b60405180910390f35b34801561013f57600080fd5b50610148610451565b005b34801561015657600080fd5b5061015f610465565b60405161016c9190610712565b60405180910390f35b34801561018157600080fd5b5061018a61046b565b60405161019791906107cc565b60405180910390f35b3480156101ac57600080fd5b506101c760048036038101906101c2919061075e565b610494565b6040516101d49190610712565b60405180910390f35b3480156101e957600080fd5b5061020460048036038101906101ff9190610813565b6104fa565b005b34801561021257600080fd5b5061021b610580565b604051610228919061089f565b60405180910390f35b60055481565b60025460035461024791906108e9565b421115610289576040517f08c379a00000000000000000000000000000000000000000000000000000000081526004016102809061097a565b60405180910390fd5b600260055461029891906109c9565b816004546102a691906108e9565b11156102e7576040517f08c379a00000000000000000000000000000000000000000000000000000000081526004016102de90610a46565b60405180910390fd5b60006102f282610494565b905080341015610337576040517f08c379a000000000000000000000000000000000000000000000000000000000815260040161032e90610ab2565b60405180910390fd5b816004600082825461034991906108e9565b92505081905550600160009054906101000a900473ffffffffffffffffffffffffffffffffffffffff1673ffffffffffffffffffffffffffffffffffffffff1663a9059cbb33846040518363ffffffff1660e01b81526004016103ad929190610ad2565b6020604051808303816000875af11580156103cc573d6000803e3d6000fd5b505050506040513d601f19601f820116820180604052508101906103f09190610b33565b503373ffffffffffffffffffffffffffffffffffffffff167f8fafebcaf9d154343dad25669bfa277f4fbacd7ac6b0c4fed522580e040a0f338383604051610439929190610b60565b60405180910390a25050565b60045481565b60025481565b6104596105a6565b610463600061062d565b565b60035481565b60008060009054906101000a900473ffffffffffffffffffffffffffffffffffffffff16905090565b60008060046005546104a691906109c9565b9050600081846004546104b991906108e9565b116104d957674563918244f40000846104d29190610b89565b90506104f0565b678ac7230489e80000846104ed9190610b89565b90505b8092505050919050565b6105026105a6565b600073ffffffffffffffffffffffffffffffffffffffff168173ffffffffffffffffffffffffffffffffffffffff16036105745760006040517f1e4fbdf700000000000000000000000000000000000000000000000000000000815260040161056b91906107cc565b60405180910390fd5b61057d8161062d565b50565b600160009054906101000a900473ffffffffffffffffffffffffffffffffffffffff1681565b6105ae6106f1565b73ffffffffffffffffffffffffffffffffffffffff166105cc61046b565b73ffffffffffffffffffffffffffffffffffffffff161461062b576105ef6106f1565b6040517f118cdaa700000000000000000000000000000000000000000000000000000000815260040161062291906107cc565b60405180910390fd5b565b60008060009054906101000a900473ffffffffffffffffffffffffffffffffffffffff169050816000806101000a81548173ffffffffffffffffffffffffffffffffffffffff021916908373ffffffffffffffffffffffffffffffffffffffff1602179055508173ffffffffffffffffffffffffffffffffffffffff168173ffffffffffffffffffffffffffffffffffffffff167f8be0079c531659141344cd1fd0a4f28419497f9722a3daafe3b4186f6b6457e060405160405180910390a35050565b600033905090565b6000819050919050565b61070c816106f9565b82525050565b60006020820190506107276000830184610703565b92915050565b600080fd5b61073b816106f9565b811461074657600080fd5b50565b60008135905061075881610732565b92915050565b6000602082840312156107745761077361072d565b5b600061078284828501610749565b91505092915050565b600073ffffffffffffffffffffffffffffffffffffffff82169050919050565b60006107b68261078b565b9050919050565b6107c6816107ab565b82525050565b60006020820190506107e160008301846107bd565b92915050565b6107f0816107ab565b81146107fb57600080fd5b50565b60008135905061080d816107e7565b92915050565b6000602082840312156108295761082861072d565b5b6000610837848285016107fe565b91505092915050565b6000819050919050565b600061086561086061085b8461078b565b610840565b61078b565b9050919050565b60006108778261084a565b9050919050565b60006108898261086c565b9050919050565b6108998161087e565b82525050565b60006020820190506108b46000830184610890565b92915050565b7f4e487b7100000000000000000000000000000000000000000000000000000000600052601160045260246000fd5b60006108f4826106f9565b91506108ff836106f9565b9250828201905080821115610917576109166108ba565b5b92915050565b600082825260208201905092915050565b7f546f6b656e2073616c652063616d706169676e2069732073746f707065640000600082015250565b6000610964601e8361091d565b915061096f8261092e565b602082019050919050565b6000602082019050818103600083015261099381610957565b9050919050565b7f4e487b7100000000000000000000000000000000000000000000000000000000600052601260045260246000fd5b60006109d4826106f9565b91506109df836106f9565b9250826109ef576109ee61099a565b5b828204905092915050565b7f427579696e6720746f6b656e732069732073746f707065640000000000000000600082015250565b6000610a3060188361091d565b9150610a3b826109fa565b602082019050919050565b60006020820190508181036000830152610a5f81610a23565b9050919050565b7f496e73756666696369656e74204554482073656e740000000000000000000000600082015250565b6000610a9c60158361091d565b9150610aa782610a66565b602082019050919050565b60006020820190508181036000830152610acb81610a8f565b9050919050565b6000604082019050610ae760008301856107bd565b610af46020830184610703565b9392505050565b60008115159050919050565b610b1081610afb565b8114610b1b57600080fd5b50565b600081519050610b2d81610b07565b92915050565b600060208284031215610b4957610b4861072d565b5b6000610b5784828501610b1e565b91505092915050565b6000604082019050610b756000830185610703565b610b826020830184610703565b9392505050565b6000610b94826106f9565b9150610b9f836106f9565b9250828202610bad816106f9565b91508282048414831517610bc457610bc36108ba565b5b509291505056fea2646970667358221220e112bceeaa9c621d8356687102ab8706a1e466b641514f5c8e7ebff4a52265fa64736f6c634300081c0033",
  "linkReferences": {},
  "deployedLinkReferences": {}
}