{
  "_format": "hh-sol-artifact-1",
  "contractName": "Token",
  "sourceName": "contracts/Token.sol",
  "abi": [
    {
      "inputs": [
        {
          "internalType": "string",
          "name": "name",
          "type": "string"
        },
        {
          "internalType": "string",
          "name": "symbol",
          "type": "string"
        },
        {
          "internalType": "address",
          "name": "initialOwner",
          "type": "address"
        }
      ],
      "stateMutability": "nonpayable",
      "type": "constructor"
    },
    {
      "inputs": [
        {
          "internalType": "address",
          "name": "spender",
          "type": "address"
        },
        {
          "internalType": "uint256",
          "name": "allowance",
          "type": "uint256"
        },
        {
          "internalType": "uint256",
          "name": "needed",
          "type": "uint256"
        }
      ],
      "name": "ERC20InsufficientAllowance",
      "type": "error"
    },
    {
      "inputs": [
        {
          "internalType": "address",
          "name": "sender",
          "type": "address"
        },
        {
          "internalType": "uint256",
          "name": "balance",
          "type": "uint256"
        },
        {
          "internalType": "uint256",
          "name": "needed",
          "type": "uint256"
        }
      ],
      "name": "ERC20InsufficientBalance",
      "type": "error"
    },
    {
      "inputs": [
        {
          "internalType": "address",
          "name": "approver",
          "type": "address"
        }
      ],
      "name": "ERC20InvalidApprover",
      "type": "error"
    },
    {
      "inputs": [
        {
          "internalType": "address",
          "name": "receiver",
          "type": "address"
        }
      ],
      "name": "ERC20InvalidReceiver",
      "type": "error"
    },
    {
      "inputs": [
        {
          "internalType": "address",
          "name": "sender",
          "type": "address"
        }
      ],
      "name": "ERC20InvalidSender",
      "type": "error"
    },
    {
      "inputs": [
        {
          "internalType": "address",
          "name": "spender",
          "type": "address"
        }
      ],
      "name": "ERC20InvalidSpender",
      "type": "error"
    },
    {
      "inputs": [
        {
          "internalType": "address",
          "name": "owner",
          "type": "address"
        }
      ],
      "name": "OwnableInvalidOwner",
      "type": "error"
    },
    {
      "inputs": [
        {
          "internalType": "address",
          "name": "account",
          "type": "address"
        }
      ],
      "name": "OwnableUnauthorizedAccount",
      "type": "error"
    },
    {
      "anonymous": false,
      "inputs": [
        {
          "indexed": true,
          "internalType": "address",
          "name": "owner",
          "type": "address"
        },
        {
          "indexed": true,
          "internalType": "address",
          "name": "spender",
          "type": "address"
        },
        {
          "indexed": false,
          "internalType": "uint256",
          "name": "value",
          "type": "uint256"
        }
      ],
      "name": "Approval",
      "type": "event"
    },
    {
      "anonymous": false,
      "inputs": [
        {
          "indexed": true,
          "internalType": "address",
          "name": "previousOwner",
          "type": "address"
        },
        {
          "indexed": true,
          "internalType": "address",
          "name": "newOwner",
          "type": "address"
        }
      ],
      "name": "OwnershipTransferred",
      "type": "event"
    },
    {
      "anonymous": false,
      "inputs": [
        {
          "indexed": true,
          "internalType": "address",
          "name": "from",
          "type": "address"
        },
        {
          "indexed": true,
          "internalType": "address",
          "name": "to",
          "type": "address"
        },
        {
          "indexed": false,
          "internalType": "uint256",
          "name": "value",
          "type": "uint256"
        }
      ],
      "name": "Transfer",
      "type": "event"
    },
    {
      "inputs": [
        {
          "internalType": "address",
          "name": "owner",
          "type": "address"
        },
        {
          "internalType": "address",
          "name": "spender",
          "type": "address"
        }
      ],
      "name": "allowance",
      "outputs": [
        {
          "internalType": "uint256",
          "name": "",
          "type": "uint256"
        }
      ],
      "stateMutability": "view",
      "type": "function"
    },
    {
      "inputs": [
        {
          "internalType": "address",
          "name": "spender",
          "type": "address"
        },
        {
          "internalType": "uint256",
          "name": "value",
          "type": "uint256"
        }
      ],
      "name": "approve",
      "outputs": [
        {
          "internalType": "bool",
          "name": "",
          "type": "bool"
        }
      ],
      "stateMutability": "nonpayable",
      "type": "function"
    },
    {
      "inputs": [
        {
          "internalType": "address",
          "name": "account",
          "type": "address"
        }
      ],
      "name": "balanceOf",
      "outputs": [
        {
          "internalType": "uint256",
          "name": "",
          "type": "uint256"
        }
      ],
      "stateMutability": "view",
      "type": "function"
    },
    {
      "inputs": [],
      "name": "decimals",
      "outputs": [
        {
          "internalType": "uint8",
          "name": "",
          "type": "uint8"
        }
      ],
      "stateMutability": "view",
      "type": "function"
    },
    {
      "inputs": [],
      "name": "mint",
      "outputs": [],
      "stateMutability": "nonpayable",
      "type": "function"
    },
    {
      "inputs": [],
      "name": "name",
      "outputs": [
        {
          "internalType": "string",
          "name": "",
          "type": "string"
        }
      ],
      "stateMutability": "view",
      "type": "function"
    },
    {
      "inputs": [],
      "name": "owner",
      "outputs": [
        {
          "internalType": "address",
          "name": "",
          "type": "address"
        }
      ],
      "stateMutability": "view",
      "type": "function"
    },
    {
      "inputs": [],
      "name": "renounceOwnership",
      "outputs": [],
      "stateMutability": "nonpayable",
      "type": "function"
    },
    {
      "inputs": [],
      "name": "symbol",
      "outputs": [
        {
          "internalType": "string",
          "name": "",
          "type": "string"
        }
      ],
      "stateMutability": "view",
      "type": "function"
    },
    {
      "inputs": [],
      "name": "totalSupply",
      "outputs": [
        {
          "internalType": "uint256",
          "name": "",
          "type": "uint256"
        }
      ],
      "stateMutability": "view",
      "type": "function"
    },
    {
      "inputs": [
        {
          "internalType": "address",
          "name": "to",
          "type": "address"
        },
        {
          "internalType": "uint256",
          "name": "value",
          "type": "uint256"
        }
      ],
      "name": "transfer",
      "outputs": [
        {
          "internalType": "bool",
          "name": "",
          "type": "bool"
        }
      ],
      "stateMutability": "nonpayable",
      "type": "function"
    },
    {
      "inputs": [
        {
          "internalType": "address",
          "name": "from",
          "type": "address"
        },
        {
          "internalType": "address",
          "name": "to",
          "type": "address"
        },
        {
          "internalType": "uint256",
          "name": "value",
          "type": "uint256"
        }
      ],
      "name": "transferFrom",
      "outputs": [
        {
          "internalType": "bool",
          "name": "",
          "type": "bool"
        }
      ],
      "stateMutability": "nonpayable",
      "type": "function"
    },
    {
      "inputs": [
        {
          "internalType": "address",
          "name": "newOwner",
          "type": "address"
        }
      ],
      "name": "transferOwnership",
      "outputs": [],
      "stateMutability": "nonpayable",
      "type": "function"
    }
  ],
  "bytecode": "0x608060405234801561001057600080fd5b50604051611a98380380611a9883398181016040528101906100329190610378565b828282600073ffffffffffffffffffffffffffffffffffffffff168173ffffffffffffffffffffffffffffffffffffffff16036100a75760006040517f1e4fbdf700000000000000000000000000000000000000000000000000000000815260040161009e9190610412565b60405180910390fd5b6100b6816100e160201b60201c565b5081600490816100c6919061064e565b5080600590816100d6919061064e565b505050505050610720565b60008060009054906101000a900473ffffffffffffffffffffffffffffffffffffffff169050816000806101000a81548173ffffffffffffffffffffffffffffffffffffffff021916908373ffffffffffffffffffffffffffffffffffffffff1602179055508173ffffffffffffffffffffffffffffffffffffffff168173ffffffffffffffffffffffffffffffffffffffff167f8be0079c531659141344cd1fd0a4f28419497f9722a3daafe3b4186f6b6457e060405160405180910390a35050565b6000604051905090565b600080fd5b600080fd5b600080fd5b600080fd5b6000601f19601f8301169050919050565b7f4e487b7100000000000000000000000000000000000000000000000000000000600052604160045260246000fd5b61020c826101c3565b810181811067ffffffffffffffff8211171561022b5761022a6101d4565b5b80604052505050565b600061023e6101a5565b905061024a8282610203565b919050565b600067ffffffffffffffff82111561026a576102696101d4565b5b610273826101c3565b9050602081019050919050565b60005b8381101561029e578082015181840152602081019050610283565b60008484015250505050565b60006102bd6102b88461024f565b610234565b9050828152602081018484840111156102d9576102d86101be565b5b6102e4848285610280565b509392505050565b600082601f830112610301576103006101b9565b5b81516103118482602086016102aa565b91505092915050565b600073ffffffffffffffffffffffffffffffffffffffff82169050919050565b60006103458261031a565b9050919050565b6103558161033a565b811461036057600080fd5b50565b6000815190506103728161034c565b92915050565b600080600060608486031215610391576103906101af565b5b600084015167ffffffffffffffff8111156103af576103ae6101b4565b5b6103bb868287016102ec565b935050602084015167ffffffffffffffff8111156103dc576103db6101b4565b5b6103e8868287016102ec565b92505060406103f986828701610363565b9150509250925092565b61040c8161033a565b82525050565b60006020820190506104276000830184610403565b92915050565b600081519050919050565b7f4e487b7100000000000000000000000000000000000000000000000000000000600052602260045260246000fd5b6000600282049050600182168061047f57607f821691505b60208210810361049257610491610438565b5b50919050565b60008190508160005260206000209050919050565b60006020601f8301049050919050565b600082821b905092915050565b6000600883026104fa7fffffffffffffffffffffffffffffffffffffffffffffffffffffffffffffffff826104bd565b61050486836104bd565b95508019841693508086168417925050509392505050565b6000819050919050565b6000819050919050565b600061054b6105466105418461051c565b610526565b61051c565b9050919050565b6000819050919050565b61056583610530565b61057961057182610552565b8484546104ca565b825550505050565b600090565b61058e610581565b61059981848461055c565b505050565b5b818110156105bd576105b2600082610586565b60018101905061059f565b5050565b601f821115610602576105d381610498565b6105dc846104ad565b810160208510156105eb578190505b6105ff6105f7856104ad565b83018261059e565b50505b505050565b600082821c905092915050565b600061062560001984600802610607565b1980831691505092915050565b600061063e8383610614565b9150826002028217905092915050565b6106578261042d565b67ffffffffffffffff8111156106705761066f6101d4565b5b61067a8254610467565b6106858282856105c1565b600060209050601f8311600181146106b857600084156106a6578287015190505b6106b08582610632565b865550610718565b601f1984166106c686610498565b60005b828110156106ee578489015182556001820191506020850194506020810190506106c9565b8683101561070b5784890151610707601f891682610614565b8355505b6001600288020188555050505b505050505050565b6113698061072f6000396000f3fe608060405234801561001057600080fd5b50600436106100cf5760003560e01c806370a082311161008c57806395d89b411161006657806395d89b41146101f0578063a9059cbb1461020e578063dd62ed3e1461023e578063f2fde38b1461026e576100cf565b806370a0823114610198578063715018a6146101c85780638da5cb5b146101d2576100cf565b806306fdde03146100d4578063095ea7b3146100f25780631249c58b1461012257806318160ddd1461012c57806323b872dd1461014a578063313ce5671461017a575b600080fd5b6100dc61028a565b6040516100e99190610dfd565b60405180910390f35b61010c60048036038101906101079190610eb8565b61031c565b6040516101199190610f13565b60405180910390f35b61012a61033f565b005b610134610374565b6040516101419190610f3d565b60405180910390f35b610164600480360381019061015f9190610f58565b61037e565b6040516101719190610f13565b60405180910390f35b6101826103ad565b60405161018f9190610fc7565b60405180910390f35b6101b260048036038101906101ad9190610fe2565b6103b6565b6040516101bf9190610f3d565b60405180910390f35b6101d06103ff565b005b6101da610413565b6040516101e7919061101e565b60405180910390f35b6101f861043c565b6040516102059190610dfd565b60405180910390f35b61022860048036038101906102239190610eb8565b6104ce565b6040516102359190610f13565b60405180910390f35b61025860048036038101906102539190611039565b6104f1565b6040516102659190610f3d565b60405180910390f35b61028860048036038101906102839190610fe2565b610578565b005b606060048054610299906110a8565b80601f01602080910402602001604051908101604052809291908181526020018280546102c5906110a8565b80156103125780601f106102e757610100808354040283529160200191610312565b820191906000526020600020905b8154815290600101906020018083116102f557829003601f168201915b5050505050905090565b6000806103276105fe565b9050610334818585610606565b600191505092915050565b610347610618565b610372336103536103ad565b600a61035f919061123b565b620186a061036d9190611286565b61069f565b565b6000600354905090565b6000806103896105fe565b9050610396858285610721565b6103a18585856107b6565b60019150509392505050565b60006012905090565b6000600160008373ffffffffffffffffffffffffffffffffffffffff1673ffffffffffffffffffffffffffffffffffffffff168152602001908152602001600020549050919050565b610407610618565b61041160006108aa565b565b60008060009054906101000a900473ffffffffffffffffffffffffffffffffffffffff16905090565b60606005805461044b906110a8565b80601f0160208091040260200160405190810160405280929190818152602001828054610477906110a8565b80156104c45780601f10610499576101008083540402835291602001916104c4565b820191906000526020600020905b8154815290600101906020018083116104a757829003601f168201915b5050505050905090565b6000806104d96105fe565b90506104e68185856107b6565b600191505092915050565b6000600260008473ffffffffffffffffffffffffffffffffffffffff1673ffffffffffffffffffffffffffffffffffffffff16815260200190815260200160002060008373ffffffffffffffffffffffffffffffffffffffff1673ffffffffffffffffffffffffffffffffffffffff16815260200190815260200160002054905092915050565b610580610618565b600073ffffffffffffffffffffffffffffffffffffffff168173ffffffffffffffffffffffffffffffffffffffff16036105f25760006040517f1e4fbdf70000000000000000000000000000000000000000000000000000000081526004016105e9919061101e565b60405180910390fd5b6105fb816108aa565b50565b600033905090565b610613838383600161096e565b505050565b6106206105fe565b73ffffffffffffffffffffffffffffffffffffffff1661063e610413565b73ffffffffffffffffffffffffffffffffffffffff161461069d576106616105fe565b6040517f118cdaa7000000000000000000000000000000000000000000000000000000008152600401610694919061101e565b60405180910390fd5b565b600073ffffffffffffffffffffffffffffffffffffffff168273ffffffffffffffffffffffffffffffffffffffff16036107115760006040517fec442f05000000000000000000000000000000000000000000000000000000008152600401610708919061101e565b60405180910390fd5b61071d60008383610b45565b5050565b600061072d84846104f1565b90507fffffffffffffffffffffffffffffffffffffffffffffffffffffffffffffffff8110156107b057818110156107a0578281836040517ffb8f41b2000000000000000000000000000000000000000000000000000000008152600401610797939291906112c8565b60405180910390fd5b6107af8484848403600061096e565b5b50505050565b600073ffffffffffffffffffffffffffffffffffffffff168373ffffffffffffffffffffffffffffffffffffffff16036108285760006040517f96c6fd1e00000000000000000000000000000000000000000000000000000000815260040161081f919061101e565b60405180910390fd5b600073ffffffffffffffffffffffffffffffffffffffff168273ffffffffffffffffffffffffffffffffffffffff160361089a5760006040517fec442f05000000000000000000000000000000000000000000000000000000008152600401610891919061101e565b60405180910390fd5b6108a5838383610b45565b505050565b60008060009054906101000a900473ffffffffffffffffffffffffffffffffffffffff169050816000806101000a81548173ffffffffffffffffffffffffffffffffffffffff021916908373ffffffffffffffffffffffffffffffffffffffff1602179055508173ffffffffffffffffffffffffffffffffffffffff168173ffffffffffffffffffffffffffffffffffffffff167f8be0079c531659141344cd1fd0a4f28419497f9722a3daafe3b4186f6b6457e060405160405180910390a35050565b600073ffffffffffffffffffffffffffffffffffffffff168473ffffffffffffffffffffffffffffffffffffffff16036109e05760006040517fe602df050000000000000000000000000000000000000000000000000000000081526004016109d7919061101e565b60405180910390fd5b600073ffffffffffffffffffffffffffffffffffffffff168373ffffffffffffffffffffffffffffffffffffffff1603610a525760006040517f94280d62000000000000000000000000000000000000000000000000000000008152600401610a49919061101e565b60405180910390fd5b81600260008673ffffffffffffffffffffffffffffffffffffffff1673ffffffffffffffffffffffffffffffffffffffff16815260200190815260200160002060008573ffffffffffffffffffffffffffffffffffffffff1673ffffffffffffffffffffffffffffffffffffffff168152602001908152602001600020819055508015610b3f578273ffffffffffffffffffffffffffffffffffffffff168473ffffffffffffffffffffffffffffffffffffffff167f8c5be1e5ebec7d5bd14f71427d1e84f3dd0314c0f7b2291e5b200ac8c7c3b92584604051610b369190610f3d565b60405180910390a35b50505050565b600073ffffffffffffffffffffffffffffffffffffffff168373ffffffffffffffffffffffffffffffffffffffff1603610b97578060036000828254610b8b91906112ff565b92505081905550610c6c565b6000600160008573ffffffffffffffffffffffffffffffffffffffff1673ffffffffffffffffffffffffffffffffffffffff16815260200190815260200160002054905081811015610c24578381836040517fe450d38c000000000000000000000000000000000000000000000000000000008152600401610c1b939291906112c8565b60405180910390fd5b818103600160008673ffffffffffffffffffffffffffffffffffffffff1673ffffffffffffffffffffffffffffffffffffffff16815260200190815260200160002081905550505b600073ffffffffffffffffffffffffffffffffffffffff168273ffffffffffffffffffffffffffffffffffffffff1603610cb55780600360008282540392505081905550610d03565b80600160008473ffffffffffffffffffffffffffffffffffffffff1673ffffffffffffffffffffffffffffffffffffffff168152602001908152602001600020600082825401925050819055505b8173ffffffffffffffffffffffffffffffffffffffff168373ffffffffffffffffffffffffffffffffffffffff167fddf252ad1be2c89b69c2b068fc378daa952ba7f163c4a11628f55a4df523b3ef83604051610d609190610f3d565b60405180910390a3505050565b600081519050919050565b600082825260208201905092915050565b60005b83811015610da7578082015181840152602081019050610d8c565b60008484015250505050565b6000601f19601f8301169050919050565b6000610dcf82610d6d565b610dd98185610d78565b9350610de9818560208601610d89565b610df281610db3565b840191505092915050565b60006020820190508181036000830152610e178184610dc4565b905092915050565b600080fd5b600073ffffffffffffffffffffffffffffffffffffffff82169050919050565b6000610e4f82610e24565b9050919050565b610e5f81610e44565b8114610e6a57600080fd5b50565b600081359050610e7c81610e56565b92915050565b6000819050919050565b610e9581610e82565b8114610ea057600080fd5b50565b600081359050610eb281610e8c565b92915050565b60008060408385031215610ecf57610ece610e1f565b5b6000610edd85828601610e6d565b9250506020610eee85828601610ea3565b9150509250929050565b60008115159050919050565b610f0d81610ef8565b82525050565b6000602082019050610f286000830184610f04565b92915050565b610f3781610e82565b82525050565b6000602082019050610f526000830184610f2e565b92915050565b600080600060608486031215610f7157610f70610e1f565b5b6000610f7f86828701610e6d565b9350506020610f9086828701610e6d565b9250506040610fa186828701610ea3565b9150509250925092565b600060ff82169050919050565b610fc181610fab565b82525050565b6000602082019050610fdc6000830184610fb8565b92915050565b600060208284031215610ff857610ff7610e1f565b5b600061100684828501610e6d565b91505092915050565b61101881610e44565b82525050565b6000602082019050611033600083018461100f565b92915050565b600080604083850312156110505761104f610e1f565b5b600061105e85828601610e6d565b925050602061106f85828601610e6d565b9150509250929050565b7f4e487b7100000000000000000000000000000000000000000000000000000000600052602260045260246000fd5b600060028204905060018216806110c057607f821691505b6020821081036110d3576110d2611079565b5b50919050565b7f4e487b7100000000000000000000000000000000000000000000000000000000600052601160045260246000fd5b60008160011c9050919050565b6000808291508390505b600185111561115f5780860481111561113b5761113a6110d9565b5b600185161561114a5780820291505b808102905061115885611108565b945061111f565b94509492505050565b6000826111785760019050611234565b816111865760009050611234565b816001811461119c57600281146111a6576111d5565b6001915050611234565b60ff8411156111b8576111b76110d9565b5b8360020a9150848211156111cf576111ce6110d9565b5b50611234565b5060208310610133831016604e8410600b841016171561120a5782820a905083811115611205576112046110d9565b5b611234565b6112178484846001611115565b9250905081840481111561122e5761122d6110d9565b5b81810290505b9392505050565b600061124682610e82565b915061125183610fab565b925061127e7fffffffffffffffffffffffffffffffffffffffffffffffffffffffffffffffff8484611168565b905092915050565b600061129182610e82565b915061129c83610e82565b92508282026112aa81610e82565b915082820484148315176112c1576112c06110d9565b5b5092915050565b60006060820190506112dd600083018661100f565b6112ea6020830185610f2e565b6112f76040830184610f2e565b949350505050565b600061130a82610e82565b915061131583610e82565b925082820190508082111561132d5761132c6110d9565b5b9291505056fea2646970667358221220b842a349ae6413acaa067fec4e6fee20074a3bd43cdc6fa2df24e5af5ac0d30664736f6c634300081c0033",
  "linkReferences": {},
  "deployedLinkReferences": {}
}