{
  "_format": "hh-sol-artifact-1",
  "contractName": "Token",
  "sourceName": "contracts/Token.sol",
  "abi": [
    {
      "inputs": [],
      "stateMutability": "nonpayable",
      "type": "constructor"
    },
    {
      "inputs": [
        {
          "internalType": "address",
          "name": "spender",
          "type": "address"
        },
        {
          "internalType": "uint256",
          "name": "allowance",
          "type": "uint256"
        },
        {
          "internalType": "uint256",
          "name": "needed",
          "type": "uint256"
        }
      ],
      "name": "ERC20InsufficientAllowance",
      "type": "error"
    },
    {
      "inputs": [
        {
          "internalType": "address",
          "name": "sender",
          "type": "address"
        },
        {
          "internalType": "uint256",
          "name": "balance",
          "type": "uint256"
        },
        {
          "internalType": "uint256",
          "name": "needed",
          "type": "uint256"
        }
      ],
      "name": "ERC20InsufficientBalance",
      "type": "error"
    },
    {
      "inputs": [
        {
          "internalType": "address",
          "name": "approver",
          "type": "address"
        }
      ],
      "name": "ERC20InvalidApprover",
      "type": "error"
    },
    {
      "inputs": [
        {
          "internalType": "address",
          "name": "receiver",
          "type": "address"
        }
      ],
      "name": "ERC20InvalidReceiver",
      "type": "error"
    },
    {
      "inputs": [
        {
          "internalType": "address",
          "name": "sender",
          "type": "address"
        }
      ],
      "name": "ERC20InvalidSender",
      "type": "error"
    },
    {
      "inputs": [
        {
          "internalType": "address",
          "name": "spender",
          "type": "address"
        }
      ],
      "name": "ERC20InvalidSpender",
      "type": "error"
    },
    {
      "inputs": [
        {
          "internalType": "address",
          "name": "owner",
          "type": "address"
        }
      ],
      "name": "OwnableInvalidOwner",
      "type": "error"
    },
    {
      "inputs": [
        {
          "internalType": "address",
          "name": "account",
          "type": "address"
        }
      ],
      "name": "OwnableUnauthorizedAccount",
      "type": "error"
    },
    {
      "anonymous": false,
      "inputs": [
        {
          "indexed": true,
          "internalType": "address",
          "name": "owner",
          "type": "address"
        },
        {
          "indexed": true,
          "internalType": "address",
          "name": "spender",
          "type": "address"
        },
        {
          "indexed": false,
          "internalType": "uint256",
          "name": "value",
          "type": "uint256"
        }
      ],
      "name": "Approval",
      "type": "event"
    },
    {
      "anonymous": false,
      "inputs": [
        {
          "indexed": true,
          "internalType": "address",
          "name": "previousOwner",
          "type": "address"
        },
        {
          "indexed": true,
          "internalType": "address",
          "name": "newOwner",
          "type": "address"
        }
      ],
      "name": "OwnershipTransferred",
      "type": "event"
    },
    {
      "anonymous": false,
      "inputs": [
        {
          "indexed": true,
          "internalType": "address",
          "name": "from",
          "type": "address"
        },
        {
          "indexed": true,
          "internalType": "address",
          "name": "to",
          "type": "address"
        },
        {
          "indexed": false,
          "internalType": "uint256",
          "name": "value",
          "type": "uint256"
        }
      ],
      "name": "Transfer",
      "type": "event"
    },
    {
      "inputs": [
        {
          "internalType": "address",
          "name": "owner",
          "type": "address"
        },
        {
          "internalType": "address",
          "name": "spender",
          "type": "address"
        }
      ],
      "name": "allowance",
      "outputs": [
        {
          "internalType": "uint256",
          "name": "",
          "type": "uint256"
        }
      ],
      "stateMutability": "view",
      "type": "function"
    },
    {
      "inputs": [
        {
          "internalType": "address",
          "name": "spender",
          "type": "address"
        },
        {
          "internalType": "uint256",
          "name": "value",
          "type": "uint256"
        }
      ],
      "name": "approve",
      "outputs": [
        {
          "internalType": "bool",
          "name": "",
          "type": "bool"
        }
      ],
      "stateMutability": "nonpayable",
      "type": "function"
    },
    {
      "inputs": [
        {
          "internalType": "address",
          "name": "account",
          "type": "address"
        }
      ],
      "name": "balanceOf",
      "outputs": [
        {
          "internalType": "uint256",
          "name": "",
          "type": "uint256"
        }
      ],
      "stateMutability": "view",
      "type": "function"
    },
    {
      "inputs": [],
      "name": "decimals",
      "outputs": [
        {
          "internalType": "uint8",
          "name": "",
          "type": "uint8"
        }
      ],
      "stateMutability": "view",
      "type": "function"
    },
    {
      "inputs": [
        {
          "internalType": "uint256",
          "name": "amount",
          "type": "uint256"
        }
      ],
      "name": "mint",
      "outputs": [],
      "stateMutability": "nonpayable",
      "type": "function"
    },
    {
      "inputs": [],
      "name": "name",
      "outputs": [
        {
          "internalType": "string",
          "name": "",
          "type": "string"
        }
      ],
      "stateMutability": "view",
      "type": "function"
    },
    {
      "inputs": [],
      "name": "owner",
      "outputs": [
        {
          "internalType": "address",
          "name": "",
          "type": "address"
        }
      ],
      "stateMutability": "view",
      "type": "function"
    },
    {
      "inputs": [],
      "name": "renounceOwnership",
      "outputs": [],
      "stateMutability": "nonpayable",
      "type": "function"
    },
    {
      "inputs": [],
      "name": "symbol",
      "outputs": [
        {
          "internalType": "string",
          "name": "",
          "type": "string"
        }
      ],
      "stateMutability": "view",
      "type": "function"
    },
    {
      "inputs": [],
      "name": "totalSupply",
      "outputs": [
        {
          "internalType": "uint256",
          "name": "",
          "type": "uint256"
        }
      ],
      "stateMutability": "view",
      "type": "function"
    },
    {
      "inputs": [
        {
          "internalType": "address",
          "name": "to",
          "type": "address"
        },
        {
          "internalType": "uint256",
          "name": "value",
          "type": "uint256"
        }
      ],
      "name": "transfer",
      "outputs": [
        {
          "internalType": "bool",
          "name": "",
          "type": "bool"
        }
      ],
      "stateMutability": "nonpayable",
      "type": "function"
    },
    {
      "inputs": [
        {
          "internalType": "address",
          "name": "from",
          "type": "address"
        },
        {
          "internalType": "address",
          "name": "to",
          "type": "address"
        },
        {
          "internalType": "uint256",
          "name": "value",
          "type": "uint256"
        }
      ],
      "name": "transferFrom",
      "outputs": [
        {
          "internalType": "bool",
          "name": "",
          "type": "bool"
        }
      ],
      "stateMutability": "nonpayable",
      "type": "function"
    },
    {
      "inputs": [
        {
          "internalType": "address",
          "name": "newOwner",
          "type": "address"
        }
      ],
      "name": "transferOwnership",
      "outputs": [],
      "stateMutability": "nonpayable",
      "type": "function"
    }
  ],
  "bytecode": "0x608060405234801561001057600080fd5b506040518060400160405280600881526020017f546974616e69756d0000000000000000000000000000000000000000000000008152506040518060400160405280600581526020017f546974616e00000000000000000000000000000000000000000000000000000081525033600073ffffffffffffffffffffffffffffffffffffffff168173ffffffffffffffffffffffffffffffffffffffff16036100f05760006040517f1e4fbdf70000000000000000000000000000000000000000000000000000000081526004016100e7919061022c565b60405180910390fd5b6100ff8161012760201b60201c565b50816004908161010f9190610497565b50806005908161011f9190610497565b505050610569565b60008060009054906101000a900473ffffffffffffffffffffffffffffffffffffffff169050816000806101000a81548173ffffffffffffffffffffffffffffffffffffffff021916908373ffffffffffffffffffffffffffffffffffffffff1602179055508173ffffffffffffffffffffffffffffffffffffffff168173ffffffffffffffffffffffffffffffffffffffff167f8be0079c531659141344cd1fd0a4f28419497f9722a3daafe3b4186f6b6457e060405160405180910390a35050565b600073ffffffffffffffffffffffffffffffffffffffff82169050919050565b6000610216826101eb565b9050919050565b6102268161020b565b82525050565b6000602082019050610241600083018461021d565b92915050565b600081519050919050565b7f4e487b7100000000000000000000000000000000000000000000000000000000600052604160045260246000fd5b7f4e487b7100000000000000000000000000000000000000000000000000000000600052602260045260246000fd5b600060028204905060018216806102c857607f821691505b6020821081036102db576102da610281565b5b50919050565b60008190508160005260206000209050919050565b60006020601f8301049050919050565b600082821b905092915050565b6000600883026103437fffffffffffffffffffffffffffffffffffffffffffffffffffffffffffffffff82610306565b61034d8683610306565b95508019841693508086168417925050509392505050565b6000819050919050565b6000819050919050565b600061039461038f61038a84610365565b61036f565b610365565b9050919050565b6000819050919050565b6103ae83610379565b6103c26103ba8261039b565b848454610313565b825550505050565b600090565b6103d76103ca565b6103e28184846103a5565b505050565b5b81811015610406576103fb6000826103cf565b6001810190506103e8565b5050565b601f82111561044b5761041c816102e1565b610425846102f6565b81016020851015610434578190505b610448610440856102f6565b8301826103e7565b50505b505050565b600082821c905092915050565b600061046e60001984600802610450565b1980831691505092915050565b6000610487838361045d565b9150826002028217905092915050565b6104a082610247565b67ffffffffffffffff8111156104b9576104b8610252565b5b6104c382546102b0565b6104ce82828561040a565b600060209050601f83116001811461050157600084156104ef578287015190505b6104f9858261047b565b865550610561565b601f19841661050f866102e1565b60005b8281101561053757848901518255600182019150602085019450602081019050610512565b868310156105545784890151610550601f89168261045d565b8355505b6001600288020188555050505b505050505050565b6113a6806105786000396000f3fe608060405234801561001057600080fd5b50600436106100cf5760003560e01c8063715018a61161008c578063a0712d6811610066578063a0712d6814610204578063a9059cbb14610220578063dd62ed3e14610250578063f2fde38b14610280576100cf565b8063715018a6146101be5780638da5cb5b146101c857806395d89b41146101e6576100cf565b806306fdde03146100d4578063095ea7b3146100f257806318160ddd1461012257806323b872dd14610140578063313ce5671461017057806370a082311461018e575b600080fd5b6100dc61029c565b6040516100e99190610e0d565b60405180910390f35b61010c60048036038101906101079190610ec8565b61032e565b6040516101199190610f23565b60405180910390f35b61012a610351565b6040516101379190610f4d565b60405180910390f35b61015a60048036038101906101559190610f68565b61035b565b6040516101679190610f23565b60405180910390f35b61017861038a565b6040516101859190610fd7565b60405180910390f35b6101a860048036038101906101a39190610ff2565b610393565b6040516101b59190610f4d565b60405180910390f35b6101c66103dc565b005b6101d06103f0565b6040516101dd919061102e565b60405180910390f35b6101ee610419565b6040516101fb9190610e0d565b60405180910390f35b61021e60048036038101906102199190611049565b6104ab565b005b61023a60048036038101906102359190610ec8565b6104de565b6040516102479190610f23565b60405180910390f35b61026a60048036038101906102659190611076565b610501565b6040516102779190610f4d565b60405180910390f35b61029a60048036038101906102959190610ff2565b610588565b005b6060600480546102ab906110e5565b80601f01602080910402602001604051908101604052809291908181526020018280546102d7906110e5565b80156103245780601f106102f957610100808354040283529160200191610324565b820191906000526020600020905b81548152906001019060200180831161030757829003601f168201915b5050505050905090565b60008061033961060e565b9050610346818585610616565b600191505092915050565b6000600354905090565b60008061036661060e565b9050610373858285610628565b61037e8585856106bd565b60019150509392505050565b60006012905090565b6000600160008373ffffffffffffffffffffffffffffffffffffffff1673ffffffffffffffffffffffffffffffffffffffff168152602001908152602001600020549050919050565b6103e46107b1565b6103ee6000610838565b565b60008060009054906101000a900473ffffffffffffffffffffffffffffffffffffffff16905090565b606060058054610428906110e5565b80601f0160208091040260200160405190810160405280929190818152602001828054610454906110e5565b80156104a15780601f10610476576101008083540402835291602001916104a1565b820191906000526020600020905b81548152906001019060200180831161048457829003601f168201915b5050505050905090565b6104b36107b1565b6104db336104bf61038a565b600a6104cb9190611278565b836104d691906112c3565b6108fc565b50565b6000806104e961060e565b90506104f68185856106bd565b600191505092915050565b6000600260008473ffffffffffffffffffffffffffffffffffffffff1673ffffffffffffffffffffffffffffffffffffffff16815260200190815260200160002060008373ffffffffffffffffffffffffffffffffffffffff1673ffffffffffffffffffffffffffffffffffffffff16815260200190815260200160002054905092915050565b6105906107b1565b600073ffffffffffffffffffffffffffffffffffffffff168173ffffffffffffffffffffffffffffffffffffffff16036106025760006040517f1e4fbdf70000000000000000000000000000000000000000000000000000000081526004016105f9919061102e565b60405180910390fd5b61060b81610838565b50565b600033905090565b610623838383600161097e565b505050565b60006106348484610501565b90507fffffffffffffffffffffffffffffffffffffffffffffffffffffffffffffffff8110156106b757818110156106a7578281836040517ffb8f41b200000000000000000000000000000000000000000000000000000000815260040161069e93929190611305565b60405180910390fd5b6106b68484848403600061097e565b5b50505050565b600073ffffffffffffffffffffffffffffffffffffffff168373ffffffffffffffffffffffffffffffffffffffff160361072f5760006040517f96c6fd1e000000000000000000000000000000000000000000000000000000008152600401610726919061102e565b60405180910390fd5b600073ffffffffffffffffffffffffffffffffffffffff168273ffffffffffffffffffffffffffffffffffffffff16036107a15760006040517fec442f05000000000000000000000000000000000000000000000000000000008152600401610798919061102e565b60405180910390fd5b6107ac838383610b55565b505050565b6107b961060e565b73ffffffffffffffffffffffffffffffffffffffff166107d76103f0565b73ffffffffffffffffffffffffffffffffffffffff1614610836576107fa61060e565b6040517f118cdaa700000000000000000000000000000000000000000000000000000000815260040161082d919061102e565b60405180910390fd5b565b60008060009054906101000a900473ffffffffffffffffffffffffffffffffffffffff169050816000806101000a81548173ffffffffffffffffffffffffffffffffffffffff021916908373ffffffffffffffffffffffffffffffffffffffff1602179055508173ffffffffffffffffffffffffffffffffffffffff168173ffffffffffffffffffffffffffffffffffffffff167f8be0079c531659141344cd1fd0a4f28419497f9722a3daafe3b4186f6b6457e060405160405180910390a35050565b600073ffffffffffffffffffffffffffffffffffffffff168273ffffffffffffffffffffffffffffffffffffffff160361096e5760006040517fec442f05000000000000000000000000000000000000000000000000000000008152600401610965919061102e565b60405180910390fd5b61097a60008383610b55565b5050565b600073ffffffffffffffffffffffffffffffffffffffff168473ffffffffffffffffffffffffffffffffffffffff16036109f05760006040517fe602df050000000000000000000000000000000000000000000000000000000081526004016109e7919061102e565b60405180910390fd5b600073ffffffffffffffffffffffffffffffffffffffff168373ffffffffffffffffffffffffffffffffffffffff1603610a625760006040517f94280d62000000000000000000000000000000000000000000000000000000008152600401610a59919061102e565b60405180910390fd5b81600260008673ffffffffffffffffffffffffffffffffffffffff1673ffffffffffffffffffffffffffffffffffffffff16815260200190815260200160002060008573ffffffffffffffffffffffffffffffffffffffff1673ffffffffffffffffffffffffffffffffffffffff168152602001908152602001600020819055508015610b4f578273ffffffffffffffffffffffffffffffffffffffff168473ffffffffffffffffffffffffffffffffffffffff167f8c5be1e5ebec7d5bd14f71427d1e84f3dd0314c0f7b2291e5b200ac8c7c3b92584604051610b469190610f4d565b60405180910390a35b50505050565b600073ffffffffffffffffffffffffffffffffffffffff168373ffffffffffffffffffffffffffffffffffffffff1603610ba7578060036000828254610b9b919061133c565b92505081905550610c7c565b6000600160008573ffffffffffffffffffffffffffffffffffffffff1673ffffffffffffffffffffffffffffffffffffffff16815260200190815260200160002054905081811015610c34578381836040517fe450d38c000000000000000000000000000000000000000000000000000000008152600401610c2b93929190611305565b60405180910390fd5b818103600160008673ffffffffffffffffffffffffffffffffffffffff1673ffffffffffffffffffffffffffffffffffffffff16815260200190815260200160002081905550505b600073ffffffffffffffffffffffffffffffffffffffff168273ffffffffffffffffffffffffffffffffffffffff1603610cc55780600360008282540392505081905550610d13565b80600160008473ffffffffffffffffffffffffffffffffffffffff1673ffffffffffffffffffffffffffffffffffffffff168152602001908152602001600020600082825401925050819055505b8173ffffffffffffffffffffffffffffffffffffffff168373ffffffffffffffffffffffffffffffffffffffff167fddf252ad1be2c89b69c2b068fc378daa952ba7f163c4a11628f55a4df523b3ef83604051610d709190610f4d565b60405180910390a3505050565b600081519050919050565b600082825260208201905092915050565b60005b83811015610db7578082015181840152602081019050610d9c565b60008484015250505050565b6000601f19601f8301169050919050565b6000610ddf82610d7d565b610de98185610d88565b9350610df9818560208601610d99565b610e0281610dc3565b840191505092915050565b60006020820190508181036000830152610e278184610dd4565b905092915050565b600080fd5b600073ffffffffffffffffffffffffffffffffffffffff82169050919050565b6000610e5f82610e34565b9050919050565b610e6f81610e54565b8114610e7a57600080fd5b50565b600081359050610e8c81610e66565b92915050565b6000819050919050565b610ea581610e92565b8114610eb057600080fd5b50565b600081359050610ec281610e9c565b92915050565b60008060408385031215610edf57610ede610e2f565b5b6000610eed85828601610e7d565b9250506020610efe85828601610eb3565b9150509250929050565b60008115159050919050565b610f1d81610f08565b82525050565b6000602082019050610f386000830184610f14565b92915050565b610f4781610e92565b82525050565b6000602082019050610f626000830184610f3e565b92915050565b600080600060608486031215610f8157610f80610e2f565b5b6000610f8f86828701610e7d565b9350506020610fa086828701610e7d565b9250506040610fb186828701610eb3565b9150509250925092565b600060ff82169050919050565b610fd181610fbb565b82525050565b6000602082019050610fec6000830184610fc8565b92915050565b60006020828403121561100857611007610e2f565b5b600061101684828501610e7d565b91505092915050565b61102881610e54565b82525050565b6000602082019050611043600083018461101f565b92915050565b60006020828403121561105f5761105e610e2f565b5b600061106d84828501610eb3565b91505092915050565b6000806040838503121561108d5761108c610e2f565b5b600061109b85828601610e7d565b92505060206110ac85828601610e7d565b9150509250929050565b7f4e487b7100000000000000000000000000000000000000000000000000000000600052602260045260246000fd5b600060028204905060018216806110fd57607f821691505b6020821081036111105761110f6110b6565b5b50919050565b7f4e487b7100000000000000000000000000000000000000000000000000000000600052601160045260246000fd5b60008160011c9050919050565b6000808291508390505b600185111561119c5780860481111561117857611177611116565b5b60018516156111875780820291505b808102905061119585611145565b945061115c565b94509492505050565b6000826111b55760019050611271565b816111c35760009050611271565b81600181146111d957600281146111e357611212565b6001915050611271565b60ff8411156111f5576111f4611116565b5b8360020a91508482111561120c5761120b611116565b5b50611271565b5060208310610133831016604e8410600b84101617156112475782820a90508381111561124257611241611116565b5b611271565b6112548484846001611152565b9250905081840481111561126b5761126a611116565b5b81810290505b9392505050565b600061128382610e92565b915061128e83610fbb565b92506112bb7fffffffffffffffffffffffffffffffffffffffffffffffffffffffffffffffff84846111a5565b905092915050565b60006112ce82610e92565b91506112d983610e92565b92508282026112e781610e92565b915082820484148315176112fe576112fd611116565b5b5092915050565b600060608201905061131a600083018661101f565b6113276020830185610f3e565b6113346040830184610f3e565b949350505050565b600061134782610e92565b915061135283610e92565b925082820190508082111561136a57611369611116565b5b9291505056fea2646970667358221220b7d3ed5cf8d455cd3845ea8360bd8fa74a1178a6c318787b804fe2889e5d585564736f6c634300081c0033",
  "linkReferences": {},
  "deployedLinkReferences": {}
}