{
  "_format": "hh-sol-artifact-1",
  "contractName": "TradeToken",
  "sourceName": "contracts/tradeToken.sol",
  "abi": [
    {
      "inputs": [
        {
          "internalType": "address",
          "name": "_tokenAddress",
          "type": "address"
        }
      ],
      "stateMutability": "nonpayable",
      "type": "constructor"
    },
    {
      "anonymous": false,
      "inputs": [
        {
          "indexed": true,
          "internalType": "address",
          "name": "buyer",
          "type": "address"
        },
        {
          "indexed": false,
          "internalType": "uint256",
          "name": "ethSpent",
          "type": "uint256"
        },
        {
          "indexed": false,
          "internalType": "uint256",
          "name": "tokensReceived",
          "type": "uint256"
        },
        {
          "indexed": false,
          "internalType": "uint256",
          "name": "price",
          "type": "uint256"
        }
      ],
      "name": "Buy",
      "type": "event"
    },
    {
      "anonymous": false,
      "inputs": [
        {
          "indexed": true,
          "internalType": "address",
          "name": "seller",
          "type": "address"
        },
        {
          "indexed": false,
          "internalType": "uint256",
          "name": "tokensSold",
          "type": "uint256"
        },
        {
          "indexed": false,
          "internalType": "uint256",
          "name": "ethReceived",
          "type": "uint256"
        },
        {
          "indexed": false,
          "internalType": "uint256",
          "name": "price",
          "type": "uint256"
        }
      ],
      "name": "Sell",
      "type": "event"
    },
    {
      "inputs": [],
      "name": "basePrice",
      "outputs": [
        {
          "internalType": "uint256",
          "name": "",
          "type": "uint256"
        }
      ],
      "stateMutability": "view",
      "type": "function"
    },
    {
      "inputs": [],
      "name": "buy",
      "outputs": [],
      "stateMutability": "payable",
      "type": "function"
    },
    {
      "inputs": [],
      "name": "lastPrice",
      "outputs": [
        {
          "internalType": "uint256",
          "name": "",
          "type": "uint256"
        }
      ],
      "stateMutability": "view",
      "type": "function"
    },
    {
      "inputs": [],
      "name": "lastUpdate",
      "outputs": [
        {
          "internalType": "uint256",
          "name": "",
          "type": "uint256"
        }
      ],
      "stateMutability": "view",
      "type": "function"
    },
    {
      "inputs": [],
      "name": "owner",
      "outputs": [
        {
          "internalType": "address",
          "name": "",
          "type": "address"
        }
      ],
      "stateMutability": "view",
      "type": "function"
    },
    {
      "inputs": [
        {
          "internalType": "uint256",
          "name": "amount",
          "type": "uint256"
        }
      ],
      "name": "sell",
      "outputs": [],
      "stateMutability": "nonpayable",
      "type": "function"
    },
    {
      "inputs": [],
      "name": "token",
      "outputs": [
        {
          "internalType": "contract Token",
          "name": "",
          "type": "address"
        }
      ],
      "stateMutability": "view",
      "type": "function"
    },
    {
      "inputs": [],
      "name": "updatePrice",
      "outputs": [],
      "stateMutability": "nonpayable",
      "type": "function"
    },
    {
      "stateMutability": "payable",
      "type": "receive"
    }
  ],
  "bytecode": "0x6080604052674563918244f4000060025534801561001c57600080fd5b506040516112ac3803806112ac833981810160405281019061003e9190610138565b806000806101000a81548173ffffffffffffffffffffffffffffffffffffffff021916908373ffffffffffffffffffffffffffffffffffffffff16021790555033600160006101000a81548173ffffffffffffffffffffffffffffffffffffffff021916908373ffffffffffffffffffffffffffffffffffffffff1602179055506002546003819055504260048190555050610165565b600080fd5b600073ffffffffffffffffffffffffffffffffffffffff82169050919050565b6000610105826100da565b9050919050565b610115816100fa565b811461012057600080fd5b50565b6000815190506101328161010c565b92915050565b60006020828403121561014e5761014d6100d5565b5b600061015c84828501610123565b91505092915050565b611138806101746000396000f3fe60806040526004361061007f5760003560e01c8063c04637111161004e578063c046371114610102578063c7876ea41461012d578063e4849b3214610158578063fc0c546a1461018157610086565b8063053f14da1461008b578063673a7e28146100b65780638da5cb5b146100cd578063a6f2ae3a146100f857610086565b3661008657005b600080fd5b34801561009757600080fd5b506100a06101ac565b6040516100ad9190610927565b60405180910390f35b3480156100c257600080fd5b506100cb6101b2565b005b3480156100d957600080fd5b506100e2610267565b6040516100ef9190610983565b60405180910390f35b61010061028d565b005b34801561010e57600080fd5b50610117610592565b6040516101249190610927565b60405180910390f35b34801561013957600080fd5b50610142610598565b60405161014f9190610927565b60405180910390f35b34801561016457600080fd5b5061017f600480360381019061017a91906109cf565b61059e565b005b34801561018d57600080fd5b506101966108ea565b6040516101a39190610a5b565b60405180910390f35b60035481565b6000600160009054906101000a900473ffffffffffffffffffffffffffffffffffffffff1673ffffffffffffffffffffffffffffffffffffffff1631905060006377359400670de0b6b3a76400008361020b9190610aa5565b6102159190610b16565b90506000600454426102279190610b47565b90506201518081836102399190610aa5565b6102439190610b16565b600360008282546102549190610b7b565b9250508190555042600481905550505050565b600160009054906101000a900473ffffffffffffffffffffffffffffffffffffffff1681565b600034116102d0576040517f08c379a00000000000000000000000000000000000000000000000000000000081526004016102c790610c0c565b60405180910390fd5b6102d86101b2565b600060035460008054906101000a900473ffffffffffffffffffffffffffffffffffffffff1673ffffffffffffffffffffffffffffffffffffffff1663313ce5676040518163ffffffff1660e01b8152600401602060405180830381865afa158015610348573d6000803e3d6000fd5b505050506040513d601f19601f8201168201806040525081019061036c9190610c65565b600a6103789190610dc5565b346103839190610aa5565b61038d9190610b16565b90506000600160009054906101000a900473ffffffffffffffffffffffffffffffffffffffff1673ffffffffffffffffffffffffffffffffffffffff16346040516103d790610e41565b60006040518083038185875af1925050503d8060008114610414576040519150601f19603f3d011682016040523d82523d6000602084013e610419565b606091505b505090508061045d576040517f08c379a000000000000000000000000000000000000000000000000000000000815260040161045490610ea2565b60405180910390fd5b60008054906101000a900473ffffffffffffffffffffffffffffffffffffffff1673ffffffffffffffffffffffffffffffffffffffff1663a9059cbb33846040518363ffffffff1660e01b81526004016104b8929190610ec2565b6020604051808303816000875af11580156104d7573d6000803e3d6000fd5b505050506040513d601f19601f820116820180604052508101906104fb9190610f23565b61053a576040517f08c379a000000000000000000000000000000000000000000000000000000000815260040161053190610f9c565b60405180910390fd5b3373ffffffffffffffffffffffffffffffffffffffff167fbeae048c6d270d9469f86cf6e8fedda3c60ad770f16c24c9fc131c8e9a09101d348460035460405161058693929190610fbc565b60405180910390a25050565b60045481565b60025481565b600081116105e1576040517f08c379a00000000000000000000000000000000000000000000000000000000081526004016105d89061103f565b60405180910390fd5b6105e96101b2565b60008060009054906101000a900473ffffffffffffffffffffffffffffffffffffffff1673ffffffffffffffffffffffffffffffffffffffff1663313ce5676040518163ffffffff1660e01b8152600401602060405180830381865afa158015610657573d6000803e3d6000fd5b505050506040513d601f19601f8201168201806040525081019061067b9190610c65565b600a6106879190610dc5565b600354836106959190610aa5565b61069f9190610b16565b9050804710156106e4576040517f08c379a00000000000000000000000000000000000000000000000000000000081526004016106db906110ab565b60405180910390fd5b60008054906101000a900473ffffffffffffffffffffffffffffffffffffffff1673ffffffffffffffffffffffffffffffffffffffff166323b872dd33600160009054906101000a900473ffffffffffffffffffffffffffffffffffffffff16856040518463ffffffff1660e01b8152600401610763939291906110cb565b6020604051808303816000875af1158015610782573d6000803e3d6000fd5b505050506040513d601f19601f820116820180604052508101906107a69190610f23565b6107e5576040517f08c379a00000000000000000000000000000000000000000000000000000000081526004016107dc90610f9c565b60405180910390fd5b60003373ffffffffffffffffffffffffffffffffffffffff168260405161080b90610e41565b60006040518083038185875af1925050503d8060008114610848576040519150601f19603f3d011682016040523d82523d6000602084013e61084d565b606091505b5050905080610891576040517f08c379a000000000000000000000000000000000000000000000000000000000815260040161088890610ea2565b60405180910390fd5b3373ffffffffffffffffffffffffffffffffffffffff167f846c37eef631e0943682d87352ec117c20008eb7f425c9b85ac011a6d4774cc084846003546040516108dd93929190610fbc565b60405180910390a2505050565b60008054906101000a900473ffffffffffffffffffffffffffffffffffffffff1681565b6000819050919050565b6109218161090e565b82525050565b600060208201905061093c6000830184610918565b92915050565b600073ffffffffffffffffffffffffffffffffffffffff82169050919050565b600061096d82610942565b9050919050565b61097d81610962565b82525050565b60006020820190506109986000830184610974565b92915050565b600080fd5b6109ac8161090e565b81146109b757600080fd5b50565b6000813590506109c9816109a3565b92915050565b6000602082840312156109e5576109e461099e565b5b60006109f3848285016109ba565b91505092915050565b6000819050919050565b6000610a21610a1c610a1784610942565b6109fc565b610942565b9050919050565b6000610a3382610a06565b9050919050565b6000610a4582610a28565b9050919050565b610a5581610a3a565b82525050565b6000602082019050610a706000830184610a4c565b92915050565b7f4e487b7100000000000000000000000000000000000000000000000000000000600052601160045260246000fd5b6000610ab08261090e565b9150610abb8361090e565b9250828202610ac98161090e565b91508282048414831517610ae057610adf610a76565b5b5092915050565b7f4e487b7100000000000000000000000000000000000000000000000000000000600052601260045260246000fd5b6000610b218261090e565b9150610b2c8361090e565b925082610b3c57610b3b610ae7565b5b828204905092915050565b6000610b528261090e565b9150610b5d8361090e565b9250828203905081811115610b7557610b74610a76565b5b92915050565b6000610b868261090e565b9150610b918361090e565b9250828201905080821115610ba957610ba8610a76565b5b92915050565b600082825260208201905092915050565b7f496e73756666696369656e742045544800000000000000000000000000000000600082015250565b6000610bf6601083610baf565b9150610c0182610bc0565b602082019050919050565b60006020820190508181036000830152610c2581610be9565b9050919050565b600060ff82169050919050565b610c4281610c2c565b8114610c4d57600080fd5b50565b600081519050610c5f81610c39565b92915050565b600060208284031215610c7b57610c7a61099e565b5b6000610c8984828501610c50565b91505092915050565b60008160011c9050919050565b6000808291508390505b6001851115610ce957808604811115610cc557610cc4610a76565b5b6001851615610cd45780820291505b8081029050610ce285610c92565b9450610ca9565b94509492505050565b600082610d025760019050610dbe565b81610d105760009050610dbe565b8160018114610d265760028114610d3057610d5f565b6001915050610dbe565b60ff841115610d4257610d41610a76565b5b8360020a915084821115610d5957610d58610a76565b5b50610dbe565b5060208310610133831016604e8410600b8410161715610d945782820a905083811115610d8f57610d8e610a76565b5b610dbe565b610da18484846001610c9f565b92509050818404811115610db857610db7610a76565b5b81810290505b9392505050565b6000610dd08261090e565b9150610ddb83610c2c565b9250610e087fffffffffffffffffffffffffffffffffffffffffffffffffffffffffffffffff8484610cf2565b905092915050565b600081905092915050565b50565b6000610e2b600083610e10565b9150610e3682610e1b565b600082019050919050565b6000610e4c82610e1e565b9150819050919050565b7f455448207472616e73666572206661696c656400000000000000000000000000600082015250565b6000610e8c601383610baf565b9150610e9782610e56565b602082019050919050565b60006020820190508181036000830152610ebb81610e7f565b9050919050565b6000604082019050610ed76000830185610974565b610ee46020830184610918565b9392505050565b60008115159050919050565b610f0081610eeb565b8114610f0b57600080fd5b50565b600081519050610f1d81610ef7565b92915050565b600060208284031215610f3957610f3861099e565b5b6000610f4784828501610f0e565b91505092915050565b7f546f6b656e207472616e73666572206661696c65640000000000000000000000600082015250565b6000610f86601583610baf565b9150610f9182610f50565b602082019050919050565b60006020820190508181036000830152610fb581610f79565b9050919050565b6000606082019050610fd16000830186610918565b610fde6020830185610918565b610feb6040830184610918565b949350505050565b7f496e73756666696369656e7420746f6b656e7300000000000000000000000000600082015250565b6000611029601383610baf565b915061103482610ff3565b602082019050919050565b600060208201905081810360008301526110588161101c565b9050919050565b7f496e73756666696369656e742045544820696e20636f6e747261637400000000600082015250565b6000611095601c83610baf565b91506110a08261105f565b602082019050919050565b600060208201905081810360008301526110c481611088565b9050919050565b60006060820190506110e06000830186610974565b6110ed6020830185610974565b6110fa6040830184610918565b94935050505056fea2646970667358221220d093d33a04cea95ea8dd944e850b305e0620f5462cb0a9f1d56515fd52ec3a4b64736f6c634300081c0033",
  "linkReferences": {},
  "deployedLinkReferences": {}
}